:4000000000100020110000002D0200002D02000010B500F0D1F900F00BF90000F7B572B680220021D200444801F081F880220021D200424801F07BF80022FF251100404EE7
:4000400014363F4BD0584B000700284009184800013001333018AF43F31801900198834207D0581E0078C0190400187802332070F4E70432142AE4D1C021324B8905196068
:400080003149324B802419609921314B24061960992330491B040B602F493C200C602F492F4D0B60C0212F4B090319602E490B7883431A43D2B20A7016212C4A2438137866
:4000C0000B43137080222A4BDB211A60C022294B12041A600223284A09011360274A11603121274A1360274A1160274A136080222B68D20213432B6000F092FD2A68234B61
:40010000234913402B60234A234B1A601022234B1A60234B20321A60224B234A1C6000232B6011602149224A11602249224A1160224A1360F7BDC04600300F4000400F4021
:400140004C1100000400014030EE00000C0001401000014010500F4018500F4030500F4000010B4038500F4001700F4000700F400001044008010440000304400803044022
:40018000000404400804044018040440FFFFFBFF0F0000800600008004010B40080202402002024008010B40000002403F010080400002402B0100C0800002400C020B405B
:4001C00010B5064C2378002B07D1054B002B02D0044800E000BF0123237010BDE80000200000000048110000084B10B5002B03D00749084800E000BF07480368002B00D122
:4002000010BD064B002BFBD09847F9E700000000EC00002048110000C80000200000000010B500F0A9FB00F0E3FAFEE7FEE70000F8B500250F49104B01394A1C14D0002283
:400240001F685C689E68A018B24203D0B858A0500432F8E70200DE68141AA64201D020C2FAE710330139E8E700F032FFFFF7D8FFFEE7C04601000000E4110000002370B544
:400280000C480D4C0D4D9A002100032B00D8A95801338150302BF6D1FFF7C0FE084B1A68002A00D11A6080220121D20513680B43136070BD000000202D02000000000000FD
:4002C000C00000200047002310B5002A05D0013A4418A45C1B19DBB2F7E7180010BDF0B57F230C000100A1B099430B000D006946C2098035CE1A1F78F7540133AB42FAD157
:400300007F2318400C5490B200F044FB21B0F0BD013810B50B2830D8C901494200F0C4FE06080A0C0E10141216191B20164B13E0164B16E0164B0AE0164B12E0164B0BE0CD
:40034000164B09E0164B02E0164B00E0164BC91814E0164B05E0164BC9180878C0B211E0144BC9180A7848788C780002230418430300C8781343000603E000210B7848781E
:400380000002184310BDC046C07F0000C17F0000C57F0000C97F0000D07F0000D17F0000D67F0000D27F0000D47F0000D87F0000DC7F0000E07F00000C4B10B51A68102388
:4003C00013400B4A00D113601368802B0DD10024022021001460FFF79BFFA04205D021000220FFF795FFFFF76DFF10BD00030B40C0000020F8B5010004000320FFF788FF6F
:40040000210006000420FFF783FF210007000620FFF77EFF0025012828D021000320FFF777FF0136F601F7192E000130C001B84209D203785A1ED2B2FD2A00D80126ED186D
:40044000EDB20130F3E721000120FFF761FF6D42EBB20625834209D1002E07D0044BE4016042C0180121FFF73AFF00252800F8BDD17F0000F0B5C34CA54400F0EBF962B645
:40048000002701970297962105AD28ACFF232A004900200000F0E6F90028F4D12988062900D885E022780423012A4FD16688F21D8A427FD8962149008A427BD8A219927908
:4004C000172A43D1F3189BB2002B08D0BEAAAE49D21852181278013B801880B2F3E7A3195A7940421B79120280B21A43082382422CD161E0342B00D0C6E0019B012B57D1F5
:40050000032E55D18022002173A800F010FE8027972173ABD819F21E04ABF619C918B6B200F0FCFD832E00D0FFE09522962104AB9B1804AA521810781B7800021843070053
:40054000FF2800D8F7E0012301930933002428A801214370230AC370002304AA06320170211D1480847089B2002909D0BEAD864E6D18AD192D7801395B199BB289B2F3E7CC
:40058000BEA9824D09195B424D199BB22B70804D1B0A4D192B707F4B0734C91817230B70A1B27F3300F08FF96DE7019B012B45D00423CBE70323C9E7637825791800313813
:4005C0000A282ED9744A1468002C26D0019A012A25D108AD04AA13725681002129AE0C222800079600F0A3FDAE60290006A8A0472623AC88FF339C4202D9AB68B34207D05D
:40060000AA68002A01D1002C04D12B68DBB29EE70E239BE70E23140099E7052397E7052394E700F04BFDC2FF1600CFFF67FF3700CFFF3C004E0067FF5F007500002EB7D183
:400640003000FFF7D7FE4342434123713300019C7DE7019B012BABD1012EA9D1002DA7D14E4B1B681B68DA0BD2B2DB09DBB2002A01D080235B0023711B0A6371FF23A371E7
:400680000023E371042462E7019B012B90D1022E8ED93DE7019B012B8AD10027F3E6019B012B85D12C33F419FF339C4282DC73ABD819320029A900F031FD0023A7B21C008A
:4006C00045E7002E00D073E708AB1900344A370011CA11C129AA03CB03C2012308240193330034E7019B012B00D061E7032E00D05EE79522962104AB9B1804AA5218127818
:400700001B7812021A430392FF2A52D90A231DE70020FFF76FFE002802D18022214B1A6000F09CF800F050FA42E701230027019302333C000BE7194B1B681A68D3099BB2DA
:40074000520601D001339BB22D02781985B29D4213D3029B002B0AD11900802208A800F0E6FC08A9FF2000F015F90123029373A9280000F00FF9002816D001230027019383
:400780000933D6E704FDFFFFA7FDFFFFACFDFFFFADFDFFFFAEFDFFFF04010020CC00002088110000C00000200123070001930300BFE7039B2902C918C90180220020FFF789
:4007C00082FD0600002D0ED1039BFF2B0BD129000520FFF79DFD2900361A0620FFF798FDF6B2361AF6B27642267100230124AEE670B50020FFF7FEFD144E431E9841336884
:4008000006241D6840422A000440C03AC0210020FFF759FD73681B78181AC0B2834201D1002D02D1002000F0CDF9094B19681A00402901D0002C03D000231360FFF71AFE87
:4008400080221A6000F0C0F970BDC046CC000020C000002010B500F099FA10BD10B500F0A3FA10BDF8B504000F0016000120002C28D0002926D00A255D4300F0C3FA0028A2
:4008800010D000F0BFFA0500AE2000F0BFF900F0B9FA8542F5D13900AF4200D929003180651807E00120013D00F09AF9002DE4D1102007E0AC4204D000F08CFA20700134EB
:4008C000F8E70020F8BD70B501230C001500002805D0002903D000F0D9FA00232C80180070BD0000802200210C4BD2041A601A681A600B4A11601A681A600C22094B1A60E6
:40090000094B0B3A1A60094B30321A60084B113A1A60084B103A1A607047C0460001054008010540240105403801054028010540140105400C01054070B50D000400AC40D0
:4009400000F00CFA024B1C6000F00CFA70BDC0460800054010B5012400F000FA054A13682343136000F0FEF918212000FFF7E4FF10BDC0460000054010B5054C2378002BBE
:4009800003D1FFF7AFFF01232370FFF7E3FF10BD08010020F0B50024ADB0089403900994FF2800D9ADE0A14200D1AAE080220CA800F0B4FB0222210001940AAB9000C05851
:4009C000002802D00918044301920132222AF5D1002903D1002C00D096E000E0002402947F224E494E4D0A914E4F5A604E4A2B603A60C0462B6805911B0F06920F2B02D134
:400A00002B68DBB205E02A680023120F0A2A00D02B680893089E002E00D07CE000F09EF9424A434B116809961960089B04900792002B19D13F4A03990A920A9A09040A43D3
:400A40000AA90A9229603C49354A3960C0462968090F0F2902D11368DBB204E01168090F0A2900D013680893089E002E3DD1002C3BD0802231000CA800F059FB019B029A95
:400A80000AAC9B001A51059B069A0A937F2363602C60234B3A60C0462A68120F0F2A02D11E68F6B204E01A68120F0A2A00D01E680896089B002B18D1204A03990A920A9A05
:400AC00009040A431E490A922C60154A3960C0462968090F0F2902D11368DBB204E01168090F0A2900D013680893099B002B04D10F4A079912680A600993049800F032F9F1
:400B000009E00423089306E0019A0124920098589950029064E708982DB0F0BDB6D7000008000040040000400400008008010B400C010020B6D8000005000080B6D9000032
:400B400006000080024B8000C31818681960704740000020F8B5032605003540B5400F0004000635AE40AF4000F0F8F8A408054BA400E4182368B3431F43276000F0F2F807
:400B8000F8BDC04600E400E01F2318401E3B8340014A13607047C04600E100E01F2318401E3B8340014A13607047C04680E100E01F2318401E3B8340014A13607047C04621
:400BC00080E200E001BE7047034A044913689BB20B4313607047C0460CED00E00400FA0570B5802504002D02064BAC4205D9186800F0AAF8044BE418F6E75868604300F0DA
:400C0000A3F870BDD40000200080FFFF10B5034B1B7A584300F098F810BDC046D4000020F0B5050087B000F099F8EB1E049003932D2B5BD8304B1B789D4204D82F4B1C78F9
:400C40002F4BE4B21EE02F4B1B789D4204D82E4B1C782E4BE4B215E02D4B1B789D4204D82C4B1C782C4BE4B20CE02C4B1B789D4204D82B4B1C782B4BE4B203E02A4B1C78FC
:400C80002A4BE4B21B78EA1EDBB20193284B294F9A5C059302922F2A04D92A2D02D919263E6008E03F233E681E40029BB34205D2204B029A1A60052000F046F81B4B1E4AC2
:400CC000ED182B780520DBB213601C4B019A1C601B4B1A60FFF79AFF029BB34206D9059B039A05209B5C3B6000F02EF8049800F039F807B0F0BDC046C0F1FF0FC1F1FF0F19
:400D0000C2F1FF0FC3F1FF0FC4F1FF0FC5F1FF0FC6F1FF0FC7F1FF0FC8F1FF0FC9F1FF0FCAF1FF0FCBF1FF0FCCF1FF0FCDF1FF0F901100002CFF0B4028FF0B401CFF0B4076
:400D400020FF0B40000000000230800804D0C0460138FDD1C046C046C0467047EFF3108072B6704780F310887047C0468021064A10B5136809060B4313600A20FFF704FF68
:400D800000F0FEF810BDC0460000064010B5054C2378002B03D100F085F801232370FFF7E5FF10BD1001002010B50A20FFF7F6FE00F0F8F8054A0A2013685B005B081360AA
:400DC0000022034B1A60FFF7F3FE10BD00000640880F0640084B094A196813680020994208D013680133412B00D103000449C85C1360C0B27047C046AC01002024010020A9
:400E000068010020044B1868044B1A681B68904200D24130C01A7047AC01002024010020134B144A30B515681C681900A54208D1114B1C680F232340082B02D00F4B186087
:400E400015E013680133402B00D100230C68A342FCD002210A4CC0B221600A4CE0541360094B1A680A4202D11A680A431A6030BD1C01002020010020080206404002064060
:400E8000800F064028010020880F064070B504004518AC4204D02078FFF7C2FF0134F8E770BD000010B51E4A00241E4B07201A6001221D4B1D491C601D4B1A601D4B0B60E2
:400EC0001D4908601D4903300C601D490A601D4A13601D4B1C60FFF761FE03210A20FFF739FE1A490A20FFF72DFE0422184B1C60184B1C60184B1C60184B1C60184B1A6094
:400F0000184B1C601A68184B1A80184B1C60184B1C60184B1C70184B1C60184B1C6010BD0C000002000006404000064000030640480006400700008004030640100306403D
:400F4000440006400002064004020640CD0F0000880E0640C80E0640480F0640080F0640C80F0640880F064018010020AC01002024010020A9010020200100201C010020F8
:400F8000F021054A13688B4360390B431360034B1A88034B1A6070471000014018010020880F0640F021064A13688B431360054B1A68E423DB001340034A13807047C04697
:400FC00010000140880F064018010020254B70B51B68002B00D09847234B1B685B071CD520240F2021490B680133412B00D100231F4A15681F4AAB4203D113681E4B1C70F0
:4010000004E012681D4DD2B2EA540B601C4B1B680342E8D104221B4B1A601B4B1B689B071FD50F20194C1A4A21681368994210D013680133402B00D100231649164DC95CA2
:40104000C9B229601360154B1B680340082BEBD104E00221124A13688B4313600222114B1A6070BD14010020CC0F0640AC0100202401002040030640A9010020680100205A
:4010800008030640C00F06408C0F0640200100201C010020280100204002064008020640880F0640800F064002B4714649084900095C49008E4402BC7047C04603B4714628
:4010C000490840004900095E49008E4403BC70470E4B70B500251E000D4CE41AA410A54204D0AB00F35898470135F8E700F068F8084B00251E00084CE41AA410A54204D006
:40110000AB00F35898470135F8E770BDCC110000CC110000CC110000D4110000002310B59A4203D0CC5CC4540133F9E710BD03008218934202D019700133FAE770470000CB
:4011400080120000260000000000000004300F4001310F4002330F4003410F4009430F4038203E1058045F011804B404E61062048E04D840188054028C40A002B402C608E5
:40118000D604E608EC0200009311B60411320101030405060708090A0B0C0E0F101112131415161718191B1C1D1E1F2021222325262728292A2B2E2F3031323334350000E6
:4011C000F8B5C046F8BC08BC9E467047E90100007D020000F8B5C046F8BC08BC9E467047C1010000F8110000C800002020000000C80000000000000000000000401100000E
:40120000441100000000E02EC05D00001800000000366E01000000000000000000000000000000000000000000000000000000000000000000000000000000000000000071
:40124000000000000000000000000000000000000000000000000000000000000000000000000000000000000000000000000000000000000000000000000000000000006E
:401280000010002091120000813000008130000010B5024B83F3088801F010FF00100020F8B572B680220021504802F0A8FB00240A252B0063434E4A01349E5CD3185A7844
:4012C000987812023243000411000200D8780A43000610435A7A197A5E7912020A43197936020E439979090431430E00D9790906314302F07BFB112CDBD1022200253D4BF6
:40130000B8211A803C4B3D4A1D703D4BC9031A6030223C4B3C201A6080223B4B92021A6099233A4A1B041360394A102611600421384A394C11608021384AC9021360384A70
:401340001160384A1360E022374BD2001A608022364B92041A608022354B52001A60354A137883432838034313701622324803781A430270D722314B18201A60304A314B04
:401380001A60D022304B1A60304B393A1A60304A304B1A60304B314A1E60314B1A600822304B1A608022304BD2001A6023680B43236001F00BFF22682C4B2D49134023605F
:4013C0002C4A2D4B09201A602C4B2D4A1E6080231B0613602B4A2560136001F0B9FE092001F0BEFE284B1D60F8BDC04600420F40CF4D000000600F4002600F402300FFFFF5
:4014000000000140040001400C00014000500F4008500F400C500F4000010B4010500F4018500F4030500F4034500F4038500F403C500F4001700F4000700F40000004401F
:40144000B6E2D800080004401800044000010440B220C000080104400003044000602000080304400004044008040440FFFFFBFF913300000600008004010B400C020240A0
:4014800008010B40000002400C020B4010B5064C2378002B07D1054B002B02D0044800E000BF0123237010BD6001002000000000504C0000084B10B5002B03D007490848F9
:4014C00000E000BF07480368002B00D110BD064B002BFBD09847F9E70000000064010020504C0000C8000020000000000200002330B5074D141A5B00A14204DD1478013251
:401500006340EB5CF6E701200343D8B230BDC046544C0000F0B54D4C4D4DA544A9AF01222900380001F014F8002800D08AE00A2248491FA801F034F8002800D082E001ABBD
:40154000132245491FA801F080F900287AD1132201AB42491FA801F078F9021E72D106A9280001F09BFA00286CD106A802F0A4FA01AB020006A91FA801F067F9384E01AB65
:40158000022231001FA801F060F900285AD101AB0A2234491FA801F058F9041E52D1787802AA0B2101F0F6FC08226B469B181A5D600006AB18182C49013402F029FA102CE3
:4015C000F2D131000EA802F06FFA06A802F074FA01AB020006A91FA801F037F9002831D101AB0B2221491FA801F02FF9002829D104001F4B60001B681B491A5D06AB181817
:40160000013402F005FA102CF3D131000EA802F04BFA06A802F050FA01AB020006A91FA801F013F900280DD11FA801F0DFF9002808D11FA801F025FA002803D102002900C6
:4016400000F086FF0B4B9D44F0BDC04624FBFFFF704D0000544D00005D4D0000714D00006E4D0000854D0000904D0000954D0000CC000020DC040000602801D9573806E039
:40168000402801D9373802E02F2802D930380001C3B2602901D9573906E0402901D9373902E02F2902D930395818C3B218007047F0B5344C0122A5443349F1A800F048FF4C
:4016C00000285CD10122314967A800F069FF002855D103AB802204A967A800F0FEFF051E4DD125AC24AB46AF187022003B00284904A802F0AFF9122302AAFF339B18DD77BE
:401700002378E5704C2B07D16378442B04D1A378522B01D101F094FE2378432B2FD16378492B2CD1A378442B29D100256B00FA18F85C5178FFF7A0FF02ABDC1C6B1C207075
:401740000193144E0F2D08D0336801225919200001F064FF019D102DE8D135680F212800FFF7C4FE290020700F310122200001F055FF012271682000227001F04FFF064BBB
:401780009D44F0BD04FAFFFF704D0000A14D0000AA4D0000CC000020FC050000F0B587B062B601F045FE012001F054FE4C4CA3681B78002B0ED102AA13706168012202A87F
:4017C00001F02CFF012202ABA16818001A7001F025FF11E063681A780023012A0AD12168CA5C02A81A540133102BF9D103223D4B1A7001E03B4A137001F008FF012802D0B3
:401800000023FF2430E08022364B1A70012001F021FEFA20400001F0B9FC002001F01AFEFA20400001F0B2FC01F0F0FE0128EDD0FA20800001F0AAFC01F024FE2A4A0120B4
:4018400013681B011B09136001F0D4FEFFF730FFFFF760FE012001F0FDFDFA20800001F095FCFAE7012B35D0204A1178944601221142F7D01E490B320C7063461B7813400B
:401880000C2BFAD01B4A13781A4D202BFBDC002202ABD000471DD35C01972F78019EBE42FBDC134E093033700F261B01DBB233432F78B842FCDC0E4801320370102AE7D1CF
:4018C0002B78842BFCDD03230C70624612781A42FBD10C70002001F0BDFD0123C4E7C046CC00002071000F400000014061000F4070000F4062000F40002310B59A4203D001
:40190000CC5CC4540133F9E710BD8218904202D001700130FAE77047030010B51B68426A480A9978141D01F0A9FF2368002B07D0984202D3C01A0834F7E76368C01800E037
:40194000180010BD0268131E10D0197820290BD93A2901D00133F8E7511C8B4206D11278302A03D101330360002001E001204042704710B5002810D00368002B0DD01A7875
:40198000002A0AD0D9888288914206D1587801F0F3F901230340181E00D0092010BDCB7E0200887E1B021843032A05D14B7D0A7D1B0213431B0418437047F8B50700056B1B
:4019C0003437012304002A004078390001F096FA0123002814D1636AE2692071EB1A934201D300230CE0E678012EFAD9E3696078ED182A000123390001F080FA013EF3E78D
:401A00001800F8BD002310B502799A4202D0FFF7D4FF0300180010BDF8B50400FFF7F2FF061E53D12378032B48D16779012F45D1250080223435010092002800FFF765FFEA
:401A40005522234B4121E254224B9218E2542200E23BFF3B35322B70137023006122363386201A7059707223800023541A4823541A4BE1541A4BE2542369BC32FF32A3545A
:401A8000184A1912A154184A190CA154174A1B0EA354E3680132A354154A1912A154154A190CA154144A1B0EA354236A60785A1C22633B00290001F021FA6671002260781B
:401AC000110001F067FA431E9841C0B2F8BDC0463202000033020000190200001A0200001B0200001D0200001E0200001F020000210200002202000023020000036B70B500
:401B000004000E0000258B4210D0FFF77BFF051E0CD12100607801233200343101F0B4F9002802D00126013576422663280070BD002310B50371013B03630400FFF7DEFF3D
:401B400001000320002924D1124B134AE35CA25C1B021343114A1BB20138934219D123006A331A885B8808001B0413430C4A1B021B0A93420DD023008834863320881B88AA
:401B8000000418430002074B000AC018431E9841C0B210BD330200003202000055AAFFFF46415400BABEABFF0023F0B5036089B0070008001600FFF7C5FE0B23051E00DA47
:401BC0002DE1984B8200D4580C23002C00D126E13C602378002B0DD0607801F0CDF80123034007D1002E00D119E1420700D416E10A2314E10023E8B22370607001F0C6F809
:401C00000323C20700D50AE1002E01D04307EFD400212000FFF78CFF012829D125000026FB35FF352B1F1A7800239A420AD06A782878AB78120202431B0413431A00EB78B0
:401C40001B06134304AAB35004361035102EE9D1002604AB9D590220002D05D029002000FFF766FF00280CD00436102EF1D1D2E00123032800D1D2E0002801D00D23CEE099
:401C800005002300220040331B783F3212781B02134380221BB292009342EFD1230022004B331B784A3212781B02134300D1A36D0293029BE361230044331B785A1EE370B2
:401CC000012ADBD8220041321178A1700029D5D04A1E1142D2D1220020004632127845300078120210436A4601909288228102001207C3D1220048321078013A127800027B
:401D0000104300D1606D220043321678013A127836021643B2D0029A5A43019B03921F09BF19BF18B842A9D3C01B01F0A7FD0028A4D03D49831C76197A1988420ED93B4976
:401D400088425FD9E262019AA36125626662002A94D1226E9B00A26203270DE00127E262019AA36125626662002A87D0039A9619A662022F48D15B002D4A9B18029A5B0A5B
:401D80009A4200D27AE701235B422361E36081336371032F2CD12300220065331B78643212781B021343012B22D1691C2000FFF7A5FE00281CD11F4B60711F4AE35CA25C7F
:401DC0001B0213431D4A1BB2934211D11C4B626B9A420DD1862292001A4BA2589A4207D187239B00E358236188239B00E358E3600C4A2770938801339BB29380E380002360
:401E000063610CE00227AAE7032201275A433B405208D318B0E70123032800D02EE7180009B0F0BD7C010020F50F0000F5FF0000FF010000330200003202000055AAFFFF4A
:401E4000525261417272416182690239023A03000020914203D298784143D86A08187047F7B5012405000E00A14261D9836999425ED20378022B2DD0032B40D0A34257D1D4
:401E80004F087F18436A790AC918FFF737FE002802D0012464424BE07B1CFF05590A0193FF0D6B6AEF193437C91828003F78FFF725FE0028EDD1019BDB05DB0DED18343591
:401EC0002B781B021F43264201D03C0930E03F053C0D2DE0436A090AC918FFF70FFE0028D7D1FF2376005B001E4033003033EB18AE195C793436337824021C4318E0436A5F
:401F0000C909C918FFF7FAFD0028C2D1FE23B6005B001E40AA193432D478937824061B041C4353781B021C4313781C43240124092000FEBDF8B5050084680E00E980012CEE
:401F400001D1022036E003689A699442F9D2002C0BD11A78032A02D19A6A002A04D11A899642EED2986A15E014009F783F0121002868BE420CD3FFF773FF0400431C18D0CB
:401F80000128DED92B689B699842DAD2F61BEEE7FFF75AFFEC600028D3D00F21330918182B68314034334901591828616961002000E00120F8BDF7B504000E0015000220F8
:401FC000012979D9A369994276D22778874244D0032F56D0012F6FD14B085B18590A0093636A2000C918FFF789FD002864D1009B3E4001330193009BEAB2DB05DB0DE318B4
:40200000002E07D01A00343211780F220A4029010A43D2B234331A7001232371019B2000590A636AC918FFF769FD002844D1019BDB05DB0DE218002E02D02D09EDB208E0F2
:402040001300343319780F232D0A99432B4019430D00130034331D702CE0636A090AC9182000FFF74BFD002826D1FF2376005B001E40A319343330361D70A6192D127571A0
:4020800018E0636AC909C9182000FFF737FD002812D1FE23B6005B001E40A3193433DA781209120715432A121D705A702A0C2D0E9A70DD7001232371FEBD0000F8B5050042
:4020C0000E1E06D1C768002F11D083699F420FD30DE0FFF7C5FE012841D9431C02D1012040423DE0AB693700984201D238E001273C00AB6901349C4204D3012F01D8002079
:402100002EE0022421002800FFF7AAFE002806D0431CE4D0012822D0BC42EAD1EFE7114A21002800FFF747FF002816D1002E0AD12B69EC605A1C0ED00122013B2B616B79CE
:4021400013436B7107E0220031002800FFF733FF0028EDD001E0200002E00128BFD00120F8BDC046FFFFFF0FF7B5C68804000136B3B20F00002B01D1042067E00369002B93
:40218000FAD00F223240019258D1C168013303610068002903D103899E42EDD24EE083783209013B1A4249D1FFF75AFE0500012801D802204AE0431C01D1012046E02068EE
:4021C00083699D4234D3002FD6D0E168FFF776FF05000720002D39D0012DEAD06B1CECD02068FFF70FFC0090031EE6D180222068190034309200FFF788FB27682900380064
:40220000FFF722FE3863009F23689A7897420CD201221A712068FFF7F5FB0028CDD122680137136B01331363EEE71A6BD71B1F63E56029002068FFF707FE20610020226844
:40224000019B34325B01D318E6806361FEBD0000F7B50B7804000D002F2B01D05C2B02D10135002301E003685B69A3602B781F2B34D800212000FFF75DFE00236361D0E0DD
:402280000022AB5C571C2E2B3ED02F2B41D1EF192422202B00D9043AF27200212000FFF749FE002806D121692068FFF727FC002800D18AE0A369DB7A002800D19FE004288B
:4022C00000D0AEE01A0002409B0600D49BE00023A36063619A4200D093E03D002B782F2B01D10135FAE75C2BFBD0A6690B2220213000FFF70AFB2B782E2BC1D00021082335
:402300008C4601930B0017E0022A5CD0B3543A00B7E75C2BBBD0202BB9D954E02F2A25D05C2A23D02E2A10D1019A082A4BD10B229B000199DBB20192012294446246AF1806
:402340007A1E1278202AE9D80EE0019888423AD957B2002F37DB00273248C05D002820D001378242F8D12EE0042200E00022002929D03178E52901D1E03931700199082981
:4023800001D19B00DBB203211940012901D10F310A430C210B40042B00D07DE704331A437AE71700413F192F02D80220034307E01700613F192F03D80120203A0343D2B226
:4023C00072540131B8E706202BE062691378002B13D00821D37A0B420AD10300A5695E1CD15CEB5C994203D133000B2EF7D161E700212000FFF7B8FE53E704205AE75B07FB
:4024000004D500200DE0002A0AD00AE06169CB7ADB0605D523681878FFF7C1FAA0605CE70520FEBDB04D0000F8B504000D0004203F262027216900291DD02068FFF75EFB0D
:4024400000281AD163691A78002A19D0DB7A3340E52A09D00F2B07D0BB43083B5A425341AB4201D100200DE000212000FFF77CFE0028DFD001E00028F4D00023236101E0FD
:402480000420FAE7F8BD10B500210400FFF752FD002810D121692068FFF730FB00280AD163691B78E52B09D0002B07D001212000FFF75AFEECE7042800D1033010BD70B525
:4024C0000400FFF7E0FF051E12D121692068FFF715FB051E0CD1010020226069FFF715FA0B22A1696069FFF707FA012223681A71280070BDF8B504000D00012901D802206C
:4025000024E0836901279942F9D2A3699D4205D229002000FFF7A4FC061E01D1002015E00128ECD0431C10D0002229002000FFF742FD00280AD123695A1C04D001332361DC
:4025400063793B4363713500DFE70120F8BD00001FB5019003A8140000910391FFF7F2F90B22002817DB0D4B8000C1581A00002901D000230B70019B002B01D00021197006
:4025800013501A1E07D00022012C04D1694601A8FFF70AFB0200100004B010BD7C010020F0B58FB00500039116000920002D00D191E000231E222B60324003A907A8FFF726
:4025C000F3FA002800D086E004AB039907A80D93FFF73EFE0C9C002802D1002C00D106301F271C2337401E4246D000280AD0042871D107A8FFF763FF00286CD108230C9CCD
:402600001F4306E01123E27A1A4263D10820730761D43B073ED54A230026212263746376079B22742276A673E673A675E675E67226776677A677E677187821000193FFF741
:40264000AEF90123019AA676E6762675667502901371B0421CD001001000166BFFF74AFF002838D1029B0798013BC3603100FFF745FA00280AD02EE000282CD1E37A042059
:40268000DA0628D4B20701D5DB0723D43B0701D520231F43079E2100336BAF710027EB612C62EF713078FFF77AF92861627F207FA37F120202431B0413431A00E37FAF609F
:4026C0001B061343EB60AF616F622E60F3883800AB8000E007200FB0F0BDF0B585B0039300231500039A040013600091FFF741F9002800D0A7E0E079002800D0A3E0A3796C
:402700000730DB0700D49EE0E368A2689F1AAF423ED92F003CE0A168CB0500D081E020684B0A8678013E1E40F3B20193002B32D02368616918000293FFF786FB00283AD03A
:40274000019B7D0AC618002D4CD0029B019A9B7852199A4201D9019A9D1A029B3200587800992B0000F090FB002828D14022A379134229D16D02009B039A5B190093A368CC
:402780007F1B5B19A360039B1B6801935B191360002FC0D156E0002901D1206909E0636A002B03D02000FFF7B7F802E06169FFF757FB012801D8022002E0431C02D101202C
:4027C000E07140E06061B3E7A369981B8542D1D92100009B4002C1321818FF322831FFF78BF8C7E7A26996421AD04021A3790B420CD02100029B28315878012300F07EFB24
:402800000028DCD14022A3799343A37121002368320058782831012300F036FB0028CED1A661A3683D00D9058023C90D9B005B1A9F4200D91D00283161182A000098FFF731
:402840005BF898E7380005B0F0BDF0B51E00002385B03360040001911700FFF78AF8002800D0C1E0E079002800D0BDE0A37907309B0700D4B8E0A368DA19934253D9A36827
:40288000E268934200D8AAE0E360A8E0A168CB0500D08FE020684A0A8378013B1340DBB20293002B42D04022A37913425FD12368616918000393FFF7C7FA00284AD0029B53
:4028C0007D0AC3180093002D60D0039B029A9B7852199A4201D9029A9D1A039B009A587801992B0000F00AFB002837D1A369009A991A8D420CD980222000019B49025918AC
:4029000092002830FEF7F8FF4022A3799343A3716D02019B7F1B5B190193A3685B19A36033685B193360002FB0D1A8E7002903D1216900290CD107E0636A002B03D02000EA
:40294000FEF7EAFF02E06169FFF7B8FB011E96D0012901D1022002E04B1C02D10120E07142E023696161002B9DD121619BE721002368A26958782831012300F0BFFA002811
:40298000ECD14022A3799343A37190E7009BA26993420DD0A368E268934209D22100039B009A58782831012300F06EFA0028D5D1009BA361A3683D00D8058023C00D9B0083
:4029C0001B1A9F4200D91D0028302A0020180199FEF792FF4022A3791343A37199E720220020A3791343A37105B0F0BD70B50400FEF7BFFF002843D1A279930640D54025F9
:402A00002A420ED021002368A26958782831012300F074FA03000120002B31D1A379AB43A371E1692068FFF769F8002828D12021236ADA7A0A43DA72227B1A77E2681212DA
:402A40005A77E268120C9A77E268120EDA77226998759A761512120C1A7512125A7521221A762932DD76D8755A769874D874A37922688B43A371012313712068FEF7CCFF74
:402A800070BD10B50400FFF7B1FF002805D12000FEF76FFF002800D1206010BD70B58AB001900E00150001A9002203A8FFF77CF8041E41D1002E22D00590010003A8FFF734
:402AC00039FA002819D1012103A8FFF7ADFC00280FD108990B223000FEF70EFF330021000B3319709E420AD0013B1A78202AF8D005E0042801D1347001E004001CE0002DD3
:402B00001AD00398016AFEF7F9FF041E14D1039843230278032A00D01C3BC1183431CA78C31816068A784978120434331B78324309020A431A432A6020000AB070BD0000DD
:402B4000F8B5050080270E002C0000F0D9FC00F0ADFCBF00FF2000F0B9FC074A13683B42FCD0C82000F028FB00F09AFC20700134A31BAB42EED1F8BD000F074037B50A4CCF
:402B80006B46DD1D01212800FFF7DAFF2B78FF2B05D06420013C00F00FFB002CF0D12000441EA0413EBDC04688130000F7B5FA2506000F00AD0001AC01212000FFF7C0FFD7
:402BC0002378FF2B0DD023780020FE2B10D139003000FFF7B5FF20000221FFF7B1FF012006E06420013D00F0E7FA002DE3D1EAE7FEBD07B5012000F0FDFC012000F0DCFABE
:402C00006B460121D81DFFF79BFF07BD13B5002000F0F0FC012000F0CFFA6B460121D81DFFF78EFFFFF7AAFF041E02D1FFF7E1FF00E00124200016BD70B504000D0000F007
:402C40005FFC00F033FC2900200000F04DFC802302499B000A681A42FCD070BD000F07407FB543B205000E00002B07DA00213720FFF7F6FF012852D87F231D400C2D0FD19C
:402C8000402302AC2B432370330E6370330CA370330AE3706B462671DE1D002D2FD008E0FFF7A7FFFFF7B2FF0300FF20002B36D0E6E70123082D00D186336420637100F027
:402CC0007BFA06212000FFF7B7FF642000F074FAC82000F071FA0C2D03D101213000FFF72FFF142430000121FFF72AFF307843B2002B14DA013CE4B2002CF3D10FE09523FB
:402D00006420637100F058FA06212000FFF794FF642000F051FAC82000F04EFAE1E704B070BDF7B507000E00FFF728FF041E21D001AD012128002E70FFF77EFFC82000F0CF
:402D40003BFA0124FD2E15D0802138008900FFF773FFC82000F030FA02212800FFF7F0FE21002800FFF7ECFE1F23287818400538444244412000FEBD0123002801D1024BFD
:402D80001B7818007047C046D800002073B50324002871D1394800F00FFA073401AD013C01212800E4B2FFF7CBFE002CF6D121002000FFF755FF060001283BD1D5210820E4
:402DC0004900FFF74DFF01281AD104212800FFF7B7FEAB78012B2DD1EB78AA2B2AD1FA24A4008021A920C905FFF73AFF011E2CD0FA20013C800000F0DFF9002CF1D119E0F2
:402E00002100A920FFF72CFF012802D93500340001E0A9250224FA26B60000212800FFF71FFF002820D0FA20013E800000F0C4F9002EF2D10024124B1C7060424441114BF3
:402E4000E4B21C70FFF7D5FE16E03A20FFF708FF0028EFD104212800FFF772FE2B780C245B06E8D4083CE6E7802110208900FFF7F7FE0028DED1DEE7200076BD1027000013
:402E800082010020D800002070B51D0001230E001900002801D1174909780320194228D1154B1B781B0700D452020124AC42A4416442113411002000FFF7D2FE002812D176
:402EC000802130008900FFF771FE002805D08023013D9B00F618002DF2D1122C03D100210C20FFF7BDFEFFF784FE2B005D1EAB41D8B270BDD80000208201002070B51C00EF
:402F0000012316000D001A00002801D11F4A127803201A4238D11E4B1B781A0700D47602012C0CD131001820FFF79AFE002825D1FE212800FFF7F5FE444244411FE00622D1
:402F4000134203D021009720FFF78AFE31001920FFF786FE002812D1FC212800FFF7E1FE002805D08023013C9B00ED18002CF3D1FD210020FFF7D5FE002800D10124601EBA
:402F80008441FFF736FEE0B270BDC046D8000020820100207FB5012315001A00002801D1364A127803201A4266D10C2960D8080000F05AFC070A5E495E5E5E5E5E5E5E4D2F
:402FC0005B00FFF723FE4CE000210920FFF748FE041E01D001244CE010216846FFF7E6FD0028F7D06B4669461A78487A92091B7AC979012A0AD11A021218FC2009048003A4
:4030000001400131521892022A6032E09B09890059186B46C0229B7912019B0213406A46C9184B1C694656790F22897A3240C90952180621961C42000A40B218D2B2093AED
:4030400093402B6015E0802300242B6011E000210A20FFF705FE0028BCD110212800FFF7A5FD44424441E4B203E000210920F0E70424FFF7BEFD200004B070BDD800002059
:4030800010B500F087FC03680C2B00D1FEE7FEE703000849084A086810B5C3189A1A802A01DC0B6005E000F075FC0C2303600120404210BDDC000020B8010020F8B5002550
:4030C0000F49104B01394A1C14D000221F685C689E68A018B24203D0B858A0500432F8E70200DE68141AA64201D020C2FAE710330139E8E700F054FCFEF750FBFEE7C046E9
:403100000100000034580000002370B50C480D4C0D4D9A002100032B00D8A95801338150302BF6D1FEF7BCF8084B1A68002A00D11A6080220121D20513680B43136070BDD3
:40314000000000208130000080120000C0000020024B8000C318186819607047400000201F2318401E3B8340014A13607047C04600E100E0034A044913689BB20B4313603F
:403180007047C0460CED00E00400FA0570B5802504002D02064BAC4205D9586800F07CFA044BE418F6E79868604300F075FA70BDE00000200080FFFF10B5034B1B7B58431D
:4031C00000F06AFA10BDC046E0000020F0B5050087B000F06BFAEB1E049003932D2B5BD8304B1B789D4204D82F4B1C782F4BE4B21EE02F4B1B789D4204D82E4B1C782E4B81
:40320000E4B215E02D4B1B789D4204D82C4B1C782C4BE4B20CE02C4B1B789D4204D82B4B1C782B4BE4B203E02A4B1C782A4BE4B21B78EA1EDBB20193284B294F9A5C059332
:4032400002922F2A04D92A2D02D919263E6008E03F233E681E40029BB34205D2204B029A1A60052000F018FA1B4B1E4AED182B780520DBB213601C4B019A1C601B4B1A601D
:40328000FFF79AFF029BB34206D9059B039A05209B5C3B6000F000FA049800F00BFA07B0F0BDC046C0F1FF0FC1F1FF0FC2F1FF0FC3F1FF0FC4F1FF0FC5F1FF0FC6F1FF0FE7
:4032C000C7F1FF0FC8F1FF0FC9F1FF0FCAF1FF0FCBF1FF0FCCF1FF0FCDF1FF0F255600002CFF0B4028FF0B401CFF0B4020FF0B4010B500F0DBF9C021034A090213680B4391
:40330000136000F0D7F910BD00010B4010B5802400F0CCF90749084B0A68E4011A4022430A600A6813408022120213430B6000F0C1F910BD00010B40FF3FFFFF70B505009B
:4033400000F0B4F90E4B04001A68C0231B02134011D10C480C49054028000E680B4A3240104308600A68012B01D1FFF7C1FF200000F0A0F970BDFFF7C9FF0123E9E7C046DA
:4033800000010B400404040010020B40FBFBFBFF042270B5224C2368134213D021490B6813420CD0204BDD6908681540A8430860D9699143D9611B69002B00D09847042043
:4033C000FFF7BCFF80232268DB001A4215D015490A681A420DD0144AD56908682B4098430860D169114B0B40D3615369002B00D098478020C000FFF7A1FF80232268DB0265
:403400001A420CD0074A12681A4204D0064B9B69002B00D098478020C002FFF78FFF70BD10020B40F400002084010020FFFBFFFF024B1868C006C00F7047C04604010440A1
:40344000402210B5024B1A60FFF794FE10BDC046C00000207F23044AC00111680B401843C0B210607047C046000104408021044A10B5136809060B43136000F051F810BD6A
:403480000000074010B5054C2378002B03D100F06DF801232370FFF7E9FF10BDA4010020014B18687047C046400307408021054B49021A680A431A601968034A0A401A606F
:4034C0007047C04604030740FFFFFEFF0F2204490B681340082BFBD0024B18607047C046080207404002074070B504004518AC4204D02078FFF7EAFF0134F8E770BD000028
:403500008021054B49021A680A431A601968034A0A401A607047C04604020740FFFFFEFFF021074B09051A680A43F0211A601A6809060A431A60034B1A88034B1A607047DD
:4035400000000140A6010020880F07400549064B0A6880061340C02212051040184308607047C04620000740FFFFFFF307210020104A114B10B51A60104A114B1A60114B92
:40358000114A1360114A1160114A1360114B1860114B1860114B1860114B1860114B1860114B1860114B18601A68114B1A80FFF7CDFF10BD05000001000007400100008002
:4035C000200007400701008000030740040307400002074004020740880E0740C80E0740480F0740080F0740C80F0740880F0740A60100207F23044AC00111680B40184325
:40360000C0B210607047C04600000440024B18684007C00F7047C046040104408023F0B5A5B002928A1803900F001B0201209A422ED800200600CB09CC0BDBB22402E418A9
:40364000E40104AD01932D1B029B9E4204D301281ED9012040421BE00028F8D123008033A74207D8029AB24204D9039A925D01362A5501E022782A5501349C42F0D104A90D
:40368000019800F01BF8019B803D01330193DBE725B0F0BD000000000230800804D0C0460138FDD1C046C046C0467047EFF3108072B6704780F310887047C046F0B50024C3
:4036C000ADB0089403900994FF2800D9ABE0A14200D1A8E080220CA800F088F902222300210001940AAD90004059002802D00918034301920132222AF5D1002902D1002BD6
:4037000000D093E0002702977F234D494D4C4E4E4E4A0A916B6025603260C046236806911B0F07920F2B04D022680023120F0A2A01D02368DBB20893089B0493002B00D050
:403740007BE0FFF7B3FF424A424B116805901960049B04920993089B002B16D13E4A03990A920A9A09040A433C490A922560354A3160C0462168090F0F2903D01168090F69
:403780000A2901D01368DBB20893089D002D39D1002F37D0802229000CA800F030F9019B029A0AAF9B00DA51069B079A0A937F237B602760234B3260C0462268120F0F2A34
:4037C00003D01A68120F0A2A01D01D68EDB20895089B002B16D1224A03990A920A9A09040A4320490A922760164A3160C0462168090F0F2903D01168090F0A2901D01368F7
:40380000DBB20893099B002B09D1124A049912680A600993099B002B01D0099B08930598FFF748FF09E00423089306E0019B01279B00EA58E950029266E708982DB0F0BD0F
:40384000B6D7000008000040040000400400008008010B40A8010020B6D8000005000080B6D900000600008002B4714649084900095C49008E4402BC7047C04600224308F7
:403880008B4274D303098B425FD3030A8B4244D3030B8B4228D3030C8B420DD3FF22090212BA030C8B4202D31212090265D0030B8B4219D300E0090AC30B8B4201D3CB0362
:4038C000C01A5241830B8B4201D38B03C01A5241430B8B4201D34B03C01A5241030B8B4201D30B03C01A5241C30A8B4201D3CB02C01A5241830A8B4201D38B02C01A52418D
:40390000430A8B4201D34B02C01A5241030A8B4201D30B02C01A5241CDD2C3098B4201D3CB01C01A524183098B4201D38B01C01A524143098B4201D34B01C01A524103099A
:403940008B4201D30B01C01A5241C3088B4201D3CB00C01A524183088B4201D38B00C01A524143088B4201D34B00C01A5241411A00D20146524110467047FFE701B50020F1
:4039800000F006F802BDC0460029F7D076E770477047C046014B18687047C046580100200E4B70B500251E000D4CE41AA410A54204D0AB00F35898470135F8E701F028FF08
:4039C000084B00251E00084CE41AA410A54204D0AB00F35898470135F8E770BD1C5800001C5800001C58000024580000002310B59A4203D0CC5CC4540133F9E710BD0300C6
:403A00008218934202D019700133FAE7704700000EB410B59DB002A9029008610B48822488604861012040421FABC881084804CBA400006801938C8100F0A8F80023029A1B
:403A400013701DB010BC08BC03B01847FFFFFF7F580100200EB4812370B59DB002AC21AD9B0040CDA3810290069000F025F80B4B606063620023606109486363A364013BF1
:403A8000E38132002B0021000068019500F0D8F91DB070BC08BC03B01847C046A53A00005801002000207047031C0A7801311A700133002AF9D170470023C25C0133002A86
:403AC000FBD1581E70470000F0B58E6885B007000C00039201939E4243D890238A89DB001A423ED003250969236801985B1A029363695D43EB0F5D19029B6D1001331B1896
:403B0000AB4200D91D00530510D52900380000F0F9FF061E14D0029A2169FFF767FFA289194B134080221343A38112E02A00380001F048F8061E0CD12169380000F096FFC7
:403B40000C23402201203B60A38940421343A38117E0029B2661F61826606561019EED1AA560019BB34200D21E0032000399206800F067FF0020A3689B1BA36023689E195D
:403B8000266005B0F0BDC0467FFBFFFFF0B59FB0029005938B890F0016001B0610D50B69002B0DD1402100F0ADFF38603861002804D10C23029A01381360D8E040237B612C
:403BC000002306AD6B6120336B761033AB7634002378002B03D1A31B049312D003E0252BF9D00134F4E7A31B320039000298FFF76BFF431C00D1B4E06A69049B94466344A0
:403C00006B612378002B00D1ABE00122002352426A6002A95432521801342B60EB60AB601370AB65534E21780522300000F0FEFE002807D00123801B83402A680134134393
:403C40002B60EFE72B68DA0604D55322202102A8121811701A0704D553222B2102A81218117022782A2A03D0099B00200A210EE0059A111D12680591002A01DB099204E07C
:403C80005242EA60022213432B6001340BE02278303A092A04D84B4301349B180120F6E7002800D0099323782E2B1ED163782A2B0AD1059B02341A1D1B680592002B01DACB
:403CC00001235B42079310E000230A201A0001346B6021783039092904D84243013452180123F6E7002B00D00792234E21780322300000F09BFE002806D04023801B8340A2
:403D00002A68013413432B60217806221B48661C297600F08BFE002812D0194B002B06D10722059B073393430833059314E005AB00933A00134B2900029800E000BF07E0E9
:403D400005AB00933A000F4B2900029800F064FA0390039B013304D06B69039A9B186B6135E7BB890B985B0601D5012040421FB0F0BDC046555600005B5600005F560000C2
:403D800000000000C93A000070B50E0014004B1C02D10120404232E0938920229343626BA381CDB26368002A0ED0A26B934205DA2368013B23601E70636810E0210000F0EE
:403DC000F7FD0028F4D0E4E721692268002908D0914206D2511E0878854202D1216001330BE023642300443363630323A36323004633E2631E70236001232800636070BDEE
:403E000010B50C00496B00290ED023004433994201D000F02BFE0020236C60636360834202D0E36B236009E0236920222360002301206360A38940421343A38110BD0000C4
:403E4000F0B5B84C0D00A54403930023009048934993862005AB4A93BE234000019202A9B14A5B000918CA5004331E00AF4A02A90918CA50019B1A78002A00D149E10821D0
:403E8000AB4C23689B185B780B4023D06B68002B11DD2B6821681A788A18082152780A4214D0499A01330292013249926A682B60013A6A60EAE7862202AB52009B189B5923
:403EC00029000098029398470028E2D0019F01370197CFE7019914004F1C252A55D1479345934B782A2B02D11A3B459301373C000A2221780B00303B092B07D8479B01345C
:403F000001935343303B59184791F2E7894F0322380000F08BFD002807D00123C01B8340459A0134134301924593671C2478672C18D8652C00D38BE0472C08D8452C00D37F
:403F400086E0002C00D1E6E0252C1ED082E05B2C56D002D8582C41D07CE0632C5ED0642C45D077E0702C33D007D86E2C5ED040D8692C6FD10023469340E0752C37D0782CAB
:403F80002CD00223732C47D064E06B68002B0EDD2B681A78944200D0BBE001336A682B60499B013A019301336A60499390E7862202AB52009B189B59290000980193984780
:403FC0000028E5D04898002800D09EE00138A4E0459B01932023019A13434593459B01938023019A9B0013434593102302E00A2300E00823469304236E2C0DDC03230BE0F5
:40400000390005A800F08CFB459B070001934023019A1343459301234B931FE0459B01934023019A134345930023F5E74599CB0600D54DE7039B499AC80704D5191D039131
:404040001B681A8044E7191D03911B681A603FE70523E1E703234B93073346936B68002B04DD459B01935B0617D51FE0862202AB52009B189B5929000098019398470028BB
:40408000EFD09FE7499A0192013249926A68013A6A60002A14DD01332B602B6824491A7809688A18082152780A42EBD14B9B022B12DC03AB2A0045A9009800F0CFF91EE0D1
:4040C000862202AB52009B189B5929000098019398470028E1D075E7042B06DC03AB2A0045A9009800F01CFA09E0134B002B00D1EEE603AB2A0045A9009800E000BF012857
:4041000007D0022800D0E3E65CE7AB895B0604D501E0489801E001204042A7239B009D44F0BDC04664FDFFFF893D0000013E00005C0100205B56000000000000F7B51700A1
:4041400001938A680B6900900C00934200DA130022003B6043321278002A01D001333B6023689B0602D53B6802333B60062523681D401ED0230043331B785A1E93412268E8
:4041800092061CD53020E1184331087021005A1C45310978A2184332023311700FE022000123193201990098089EB047431C0ED00135E3683A689B1A9D42F0DBDAE72200DD
:4041C000019943320098089DA847431C02D10120404220E006232068E1683A6803400025042B03D18D1AEB43DB171D40A3682269934201DD9B1AED180027BD420AD022005F
:4042000001231A3201990098089EB047431CDED00137F2E70020FEBDF0B58BB006920A0043320793059004920A7E0C00109B6E2A00D1ABE011D8632A22D009D8002A00D113
:40424000B5E0582A00D0C5E045310A70814A4FE0642A1DD0692A1BD0BCE0732A00D1AAE009D86F2A29D0702A00D0B3E0202209680A43226037E0752A1FD0782A33D0A9E076
:404280000E001A684236111D196013683370A4E021681A68080606D4490604D5111D19600023D55E02E0111D19601568002D3BDA2D23049A6D42137036E021681A680806FE
:4042C00006D4490604D51568111D1960ADB202E0111D196015685F4B227E039308276F2A1DD00A271BE022007821453211705A4A19680392081D226818600D68100602D47D
:40430000500600D5ADB2D30702D520231A4322601027002D03D1202322689A4322602300002243331A7002E00A274A4B03936368A360002B09DB0422216891432160002D2B
:4043400005D1049E002B11D07BE0002D79D0049E28003900FFF718FB039B013E5B5C280033703900FFF78AFA051EF1D1082F09D12368DB0706D563682269934202DC302330
:40438000013E3370049B9B1B23612BE009681A68080607D4490605D5111D19601368A28A1A8004E0111D1960136862691A600023049E236116E01A68111D196016680021F8
:4043C0006268300000F032FB002801D0801B6060636803E0260042363270012323610023049A1370079B09AA00932100069B0598FFF7A4FE431C02D10120404227E0236931
:40440000320006990598079DA847431CF4D0236800259B070FD4099BE068984217DA180015E022000123193206990598079EB047431CE1D00135E368099A9B1A9D42F0DB63
:40444000E9E72600039B42361B7833708EE70BB0F0BDC0466656000077560000F7B515008A6801900C00002A06D18A69511E8A41012152420A43A2602268D20603D41A6850
:40448000111D196017680026A06900281ED1102223680136134203D12B681B783B7001372A686B6801322A60A268013B013A6B60A260002A1ED0002BE6DCC0235B00E3587C
:4044C0002900019898470028DED013E0012806D12B6862691B78D35C002BD8D11AE0022808D12B680D4A1B781268D31808225B781342CCD010232268134006D1E26801322D
:40450000E260A269002A00D03B70236900209E19266101E0002EEDD1FEBDC0465C010020F0B50C008DB00293774B0590160009AA23CB23C2754B0693A369032B01D0744BFB
:404540000693AE220020A3685200591E0490914205D95E3BFF3B04935E23FF33A36023001C330193D023002722681B0113432360019B0393336809A81978BB00022218587C
:4045800000F054FA00283BD0012F0DD16368002B06D1083322686360F933FF33134323605C4B226813400EE0022F0DD1C02180222368C90019409200914224D1F13AFF3A81
:4045C0006260F03213432360A3685A1EA260002B16D0039B5D1C33685A1C32601B78039A039513707368013B7360002B08DCC0235B00E3583100059807939847002847D16A
:404600000137032FB6D16368002B01D10A3363601021002763686069C91A3F4BC91800F07FF8039DA368002B33D0326860691178405C00282DD030290DD180202168000139
:40464000014208D0049A0137002A0BD0013A01330492A36006E02168304B0B40236013782B7001357368013B7360002B03DD33680133336008E0C0235B00E35831000598A2
:4046800003939847002804D1A368013BA360C9E700272368DB050ED5019B9D4207D9BE23013D5B002978E358320005989847019B01209D4225D0102223681A401AD12A708D
:4046C000636801990598069EB047029B22681B68910607D4D10705D502991A1D0A601B68188004E002991A1D0A601B681860E3680133E3600020019BED1A2369ED195D1950
:4047000025610DB0F0BDC0468856000085470000A9480000FFFAFFFF94560000FFF6FFFF70B50B785E2B02D04A1C002502E001254B788A1C0100441CFF340D700131A142EF
:40474000FBD1002B01D1501E1BE001214D401100C5540C784A1C2D2C07D05D2C10D0002C01D02300F3E708000BE04E785D2EF8D0B342F6DC02310133C5549E42FBDCE8E7D8
:40478000100070BDF0B51E00454B87B01B680192029308220B00059003911C7802995D1C09194878104001D02B00F6E72D2C04D19D1C5C780123009304E000902B2C01D167
:4047C0005C789D1C002E02D0102E0AD162E0302C5ED120222B789343582B54D110266C780235009F31007B1E9F412E4BFF183800FFF7CAF8380004913100FFF73FF800237B
:404800000322070094461800029A121951780422114201D0303C07E06246114017D03722012900D02032A41AA64210DD5A1C0BD0B84207D802D1049B9C4203DC70430123E5
:40484000201801E001235B422C780135DCE75A1C0BD10098059A431E9841124BC01822231360019B002B0AD117E0009A002A00D04042019A002A10D0039A002B00D06A1E9D
:40488000019B1A6009E03024002EAAD10826A8E70A26A6E7302C9CD0A3E707B0F0BDC0465C010020FFFFFF7FF0B51E003F4B87B01B680491029317000B00082105901C7828
:4048C000029A5D1C121952780A4001D02B00F6E72D2C04D19D1C5C780123019304E001922B2C01D15C789D1C002E02D0102E0AD157E0302C53D120222B789343582B49D1C3
:4049000010266C780235012031004042FEF7B6FF0390012031004042FFF736F800238C461800029A121951780422114201D0303C07E00322114017D03432012900D02032D4
:40494000A41AA64210DD002B09DB039B984206D801D1644503DC70430123201801E001235B422C780135DCE7002B07DA22230120059A40421360002F09D115E0019A002ACE
:4049800000D04042002F0FD0049A002B00D06A1E3A6009E03024002EB5D10826B3E70A26B1E7302CA7D0AEE707B0F0BD5C0100200B00F7B54D6B44330C009D421BD18026AF
:4049C000F600310000F09EF8002802D10120404225E023006063A66346331A78104BC254230045331A780F4BC2542A780E4BC254C018206012E08E6B290073001A000193C1
:404A000000F0E0F8051EE1D08719010032003800FEF7ECFF019B27606563A3630020FEBDFF030000FE030000FD030000C9B28218904204D003788B4202D00130F8E700201B
:404A4000704710B5884202D98B18984201D3002305E09B1A013A08D3995C8154FAE7934203D0CC5CC4540133F9E710BD70B50500002944D00C1F2368002B00DAE418280037
:404A800000F0D8F81E4A13681100002B02D16360146031E0A3420DD92268A018834203D118685B688218226063600C6024E0A24203D813005A68002AF9D11E689819A04223
:404AC0000BD12168711858181960824214D110685268411819605A600EE0A04202D90C232B6009E021686018824203D1106852684118216062605C60280000F09CF870BD2E
:404B0000B0010020032370B5CD1C9D43083506000C2D01D20C2501E0002D01DBA94202D90C23336048E0300000F084F8234B1C681A002100002913D00B685B1B0DD40B2BA1
:404B400002D90B60CC181EE08C4202D1636813601AE04B6863600C0016E00C004968E9E7174C2368002B03D1300000F051F820602900300000F04CF8431C18D00323C41C7F
:404B80009C43A0420DD12560300000F054F8200007220B30231D9043C31A0ED05A42E2500BE0211A300000F033F8431CEBD10C233000336000F03FF8002070BDB001002082
:404BC000AC010020F8B506000C001500002904D11100FFF797FF040018E0002A03D1FFF745FF2C0012E000F027F885420ED929003000FFF787FF071E07D021002A00FEF759
:404C0000F5FE21003000FFF731FF3C002000F8BD002370B5064C050008002360FEF738FA431C03D12368002B00D02B6070BDC046B4010020704770470B1F1A68101F002AE9
:404C400004DA891804390B68D018043870470000000000000009121B242D363F48415A536C657E7719100B023D342F265158434A757C676E323B2029161F040D7A73686188
:404C80005E574C452B2239300F061D14636A7178474E555C646D767F4049525B2C253E3708011A137D746F6659504B42353C272E1118030A565F444D727B60691E170C0584
:404CC0003A3328214F465D546B627970070E151C232A31384148535A656C777E09001B122D243F3658514A437C756E671019020B343D262F737A6168575E454C3B32292064
:404D00001F160D046A6378714E475C55222B3039060F141D252C373E0108131A6D647F7649405B523C352E2718110A03747D666F5059424B171E050C333A21285F564D4403
:404D40007B7269600E071C152A233831464F545D626B7079696E666F2E747874003D3D53706F6F6643494420696E666F3D3D0D0A004361726420766F6C756D65206C61621C
:404D8000656C3A200043617264204349443A2000253032580053706F6F66204349443A2000636F6E662E74787400257320257300222A2B2C3A3B3C3D3E3F5B5D7C7F00226D
:404DC0002A2B2C2E3A3B3C3D3E3F5B5D7C7F0000300F40794E0000800080300F40F94E0000800000320F40794F0000800080320F40F94F0000800070000F40795000002020
:404E00000008600F40995000000C0000430F40A5500000800080430F4025510000800080420F40A5510000800000330F4025520000800080330F40A5520000800000310FFE
:404E40004025530000800080310F40A5530000800000410F4025540000800080410F40A5540000800000400F4025550000800080400F40A555000080000000042006000034
:404E8000010000060200400800060000000000071010000104000002000800004000000400000002081015002A0740100C08030630200000000000040100000000000000FF
:404EC00000000000000000000000000000000000002424000488000021000000000000000000000000000000000000000000000000000000000000000004072008043E50F8
:404F000040040648180410500400185406801E5400031E0000001005022B01D4780000541E0040543E000602186060801F1860071F0088A2000000000000000000000000C0
:404F4000000000000000000000000000000000000004040004880000010000000000000000000000000000000000000000000000000000000000000000020101020301048E
:404F80000A0303000802030104030218010204A90B00030200010202015400AB0200006B0B030200090103AA08300C0C0CC00003030000AA8A000000000000000000000063
:404FC00000000000000000000000000000000000000404000488000021000000000000000000000000000000000000000000000000000000000000000003000404000000F1
:40500000000000000200000000000000010300000000000008020001000000000002000900010002000300000002020404010108080000000000001100000000000000001F
:40504000000000000000000000000000000000000004040000880000210000000000000000000000000000000000000000000000000000000000000000F087000000000008
:4050800000000000000000000000000000000000000000000000000000000004000000000000000000000000000000000000000000000001000000000000000000000000EB
:4050C0000000000000000000000000000000000000000000000000000000200000000000000000000000000000000000000000000000000000000000000000000000000090
:405100000000000000000000080000000000000000000000000000000000000000000000000000000000000000000000000000000000000004000000000000010000200042
:405140000000000000000000000000000000000000000000000000000000000000000000000000000000000100000000000000000004000000000000000000000002000028
:4051800000000000000200000000000000000000000000000000000000000000000000000000000000000000000020010000000000000000000000000000000000000000CC
:4051C00000000000000000000000000000000000000000000000000000000000000000000000000000000000000000000000000000000000000000000000000000000000AF
:4052000000000000000000000000000000000000000000000000000000000000000000000000000000010010200055000000002001080046000000021400001051010224DB
:405240000022444823000002154040001000000000080200292000020090110800000000116400010000000000000000000000000000000000000000000000000000200022
:4052800010000128400000000012210000000000000000000000000000000000000C0000000800000000000000000000000001004A22048000040001000000400284110061
:4052C00041000410100000990821400020000000002100010800020400000000000000000000000000F800F500F70000000000F000F500F500000000000000F000F0000059
:4053000000000042000000000010000000000000000000000000000000000000000000000000000000268000008015000080440880200052008A0400000051101108820098
:4053400004201113480008910084041841008220000001002900081000801500002A00400004100140000000000000000001000040000000000000000000000000000000AA
:4053800000A00100080000000000000000000000000844000091002000020040000400000000000002000000000400010200000000000000040000000000000000000000F4
:4053C00000000000000000000000000000000000000000000000000000000000000000000000000000FF00FF00FF0000000000FD00F600FF00000000000000F000000000CE
:405400000000001200000048000200000000000000000000000000000000000000000000000000000000000000000000000000000000000000000000000000000000000010
:405440000000000000000000000000000000000000000000000000000000000000000000000000000000000000000000000000000000000000000000000000040000000028
:4054800000000000000000000000000000000000000000000000000000000000000000000000000000000000000000000000000000000004000000000000000000000004E4
:4054C000000000000000000000000000000000000000000000000000000000000000000000000000000000000000000000000000000000000000000000400000000000006C
:405500000000000000000000000000000000000000000000000000000000000000000000000000000000000000000004000000000000000000000000000000000000000067
:405540000000000000000000000000000000000000000000000000000080000000000000000000000000000000000000000000000000000000000080000200000000000029
:4055800000000000000000000000000000000000000000000000000000000000000000000000000000000000008200000000000000000080000000000000000000000000E9
:4055C00000000000000000000000000000000000000000000000000000000000000000000000000000800000000000000000000000200000000000000020002000000000CB
:4056000000000000000000100000004000000000000000000000000000000000000000000000000000030405060708090A0B0C0E0F101112131415161718191B1C1D1E1F54
:405640002021222325262728292A2B2E2F3031323334354300232D302B2000686C4C0065666745464700303132333435363738394142434445460030313233343536373858
:405680003961626364656600A6560000A9560000AC560000412D46612D66383930313233343536375D002B2D0030300078580000202020202020202020282828282820209D
:4056C000202020202020202020202020202020208810101010101010101010101010101004040404040404040404101010101010104141414141410101010101010101010B
:4057000001010101010101010101011010101010104242424242420202020202020202020202020202020202020202101010102000000000000000000000000000000000EA
:405740000000000000000000000000000000000000000000000000000000000000000000000000000000000000000000000000000000000000000000000000000000000029
:4057800000000000000000000000000000000000000000000000000000000000000000000000000000000000000000000000000000000000000000000000000000000000E9
:4057C00000000000000000000000000000000000000000000000000000000000000000000000000000000000000000000000000000000000000000000000000000000000A9
:4058000000000000000000000000000000000000F8B5C046F8BC08BC9E467047B514000009310000F8B5C046F8BC08BC9E4670478D14000048580000C80000209800000018
:40584000580000000000000000000000307F0000017F0000007F000001000000B8010020010000000000E02EC05D00001800000000366E010404040000000000B05700004C
:40588000D0570000F05700000000000000000000000000000000000053560000000000000000000000000000000000000000000000000000000000000000000000000000D1
:4058C000000000000000000000000000000000000000000000000000F8000020AF56000000000000000000000000000000000000000000000000000000000000000000008B
:405900000000000000000000000000000000000000000000000000000000000000000000000000000000000000000000000000000000000000000000000000000000000067
:405940000000000000000000000000000000000000000000000000000000000000000000000000000000000000000000000000000000000000000000000000000000000027
:4059800000000000000000000000000000000000000000000000000000000000000000000000000000000000000000000000000000000000000000000000000000000000E7
:4059C00000000000000000000000000000000000000000000000000000000000000000000000000000000000000000000000000000000000000000000000000000000000A7
:407FC0006191120000240000008046000000000000000100000001000000000000000000400000000000000000000000000000000000000000000000000000000000000051
:0200000490303A
:02000000CD9A97
:0200000490402A
:200000000000000000000000000000000000000000000000000000000000000000000000E0
:0200000490501A
:0C000000000204B61193110004D0DF2DA3
:0200000490600A
:0100000002FD
:00000001FF